:020000040800F2
:1000000000040020C101000821520008215200080C
:1000100021520008215200082152000821520008F4
:10002000215200082152000821520008E14B00082B
:1000300021520008215200082152000821520008D4
:10004000215200080132000891330008E133000812
:100050002152000821520008112F0008612F0008CA
:10006000B12F00080130000851300008214A000873
:10007000614A0008A14A0008E14A0008A1270008D7
:10008000E127000821280008215200082152000819
:10009000215200082152000821520008A130000816
:1000A0002152000821520008215200082152000864
:1000B000912C000821520008B111000821520008BB
:1000C0002152000821520008215200082152000844
:1000D0002152000821520008215200082152000834
:1000E0004131000851320008A132000821520008B5
:1000F00021520008215200082152000861280008FE
:100100002152000821520008215200082152000803
:1001100021520008215200082152000821520008F3
:10012000A1280008E1280008212900086129000809
:10013000A129000821520008F132000821520008CC
:10014000215200082152000821520008011E000817
:10015000E1290008212A0008612A0008215200082C
:1001600021520008215200082152000821520008A3
:100170004133000821520008215200082152000892
:100180002152000821520008215200082152000883
:100190002152000821520008215200082152000873
:1001A0002152000821520008215200082152000863
:1001B0002152000821520008215200082152000853
:1001C00072B6224880F30988022080F31488BFF3B6
:1001D0006F8F04F0D5FF01F053F91D481D491E4AE9
:1001E00091423CBF41F8040BFAE71C49174A91427F
:1001F0003CBF41F8040BFAE719491A4A1A4B9A42D4
:100200003EBF51F8040B42F8040BF8E700201749F1
:10021000174A91423CBF41F8040BFAE704F0C8FFCB
:1002200004F0B6FF134C144DAC4203DA54F8041B2F
:100230008847F9E700F0CCFB104C114DAC4203DAD3
:1002400054F8041B8847F9E704F0AABF000800200F
:1002500055555555000000200004002000040020E2
:10026000486F000800080020080800200808002047
:10027000440F0020C0010008C0010008C0010008B0
:10028000C0010008000000000000000000000000A5
:100290002DE9F04FC1F80CD0C3689D46BDE8F08F42
:1002A000002383F311882846A047002005F068FE4C
:1002B00005F0FEFC00DFFEE700000000000000008B
:1002C000844641EA000313F003036DD1403A41D361
:1002D00051F8043B40F8043B51F8043B40F8043B20
:1002E00051F8043B40F8043B51F8043B40F8043B10
:1002F00051F8043B40F8043B51F8043B40F8043B00
:1003000051F8043B40F8043B51F8043B40F8043BEF
:1003100051F8043B40F8043B51F8043B40F8043BDF
:1003200051F8043B40F8043B51F8043B40F8043BCF
:1003300051F8043B40F8043B51F8043B40F8043BBF
:1003400051F8043B40F8043B51F8043B40F8043BAF
:10035000403ABDD2303211D351F8043B40F8043B4F
:1003600051F8043B40F8043B51F8043B40F8043B8F
:1003700051F8043B40F8043B103AEDD20C3205D35F
:1003800051F8043B40F8043B043AF9D2043208D057
:10039000D2071CBF11F8013B00F8013B01D30B88C9
:1003A00003806046704700BF082A13D38B078DD0A7
:1003B00010F003038AD0C3F10403D21ADB071CBF79
:1003C00011F8013B00F8013B80D331F8023B20F8E3
:1003D000023B7BE7043AD9D3013A11F8013B00F81C
:1003E000013BF9D20B7803704B7843708B788370A4
:1003F00060467047000000000000000000000000A0
:1004000082B020230193019B83F3118802B07047CF
:1004100082B000230193019B83F3118802B07047DF
:1004200008B5FFF7EDFF08BD000000000000000068
:1004300008B5FFF7EDFF08BD000000000000000058
:1004400008B5FFF7EDFF08BD000000000000000048
:1004500008B5FFF7EDFF08BD000000000000000038
:1004600082B00190084611461A4603468DF80330C3
:100470000B468DF802301346ADF800309DF803307E
:10048000022B05D0032B05D0012B0DD1084B0CE01E
:10049000084B0AE09DF80230032B05D89DF8023086
:1004A000DB00054A134400E00023184602B0704701
:1004B000D06C0008006D0008B06D0008000000005E
:1004C00000B583B001900B468DF803309DF80330E2
:1004D000052B1DD801A252F823F000BF110500081A
:1004E00011050008F50400081105000811050008B1
:1004F00011050008FFF7A4FF01980121064A03F047
:100500003FFE01980221054A03F03AFEFFF7A0FFE3
:1005100003B05DF804FB00BFD06D0008006E00085A
:1005200082B00190019B93F8443003F06003202BCC
:100530002CD1019B93F84530212B04D0222B18D0CD
:10054000202B0BD020E0019B124A9A63019B0722CB
:10055000DA63019B00221A64012318E0019B0D4A13
:100560009A63019B0722DA63019B00221A6401232C
:100570000DE0019B00229A63019B0022DA63019B3C
:1005800000221A64012302E0002300E00023184641
:1005900002B07047000800200000000000000000CA
:1005A00082B020230193019B83F3118802B070472E
:1005B00082B000230193019B83F3118802B070473E
:1005C00008B5FFF7EDFF08BD0000000000000000C7
:1005D00008B5FFF7EDFF08BD0000000000000000B7
:1005E0004FF080435B6A1846704700BF0000000070
:1005F00008B5FFF7F5FF0346184608BD00000000E8
:1006000008B5FFF7CDFF08BD0000000000000000A6
:1006100008B5FFF7CDFF08BD000000000000000096
:1006200008B5FFF7CDFF08BD000000000000000086
:1006300008B5FFF7CDFF08BD000000000000000076
:1006400008B5FFF7D5FF0346184608BD00000000B7
:1006500000B583B0FFF7D4FFFFF7F2FF0190FFF77B
:10066000D7FF019B184603B05DF804FB00000000B3
:1006700000B583B00190FFF7E3FF0246019BD31A58
:10068000184603B05DF804FB000000000000000005
:10069000014B9B69184670470808002000000000C5
:1006A00082B00190024B9B69019A9A6102B0704737
:1006B000080800200000000000000000000000000A
:1006C00000B583B001900091FFF7AAFF054B1B68AE
:1006D0001846012104F0ACFCFFF7AAFF03B05DF857
:1006E00004FB00BFAC0C0020000000000000000074
:1006F00010B594B001902A48FFF7D2FFFFF7A8FF8A
:100700001390284A03AB07CA83E8070003AB0C33F6
:10071000254A1C46134607CB20606160A26003ABEC
:100720001833224A1C46134607CB20606160A26042
:1007300003AB243318461E491822FFF7C1FD03AB53
:100740001C4801211A463C2303F0BAFD12901A4BB3
:100750001B780133DAB2184B1A70174B1B78002B39
:1007600013D0164B1B78002B01D0002200E0FF2293
:10077000124B1A70114B1B785BB2114802211A46BA
:1007800004F0C6FB0C4B00221A70129B13F1020FEF
:10079000B7D1139B1E331393139805F0D9FBB0E721
:1007A00098620008700C00207C0C0020880C00204F
:1007B000940C0020100A0020400F0020410F002060
:1007C000100C0020000000000000000000000000ED
:1007D00000B585B001905648FFF762FFFFF758FF5C
:1007E0000246544B1A60FFF733FF0290012004F0D9
:1007F0004FFC0B23039326E0039B013B4E4AD15C45
:100800004D4A039B13440A461A70039B013B4B4A13
:10081000D15C4A4A039B13440A461A70039B013B6E
:10082000474AD15C464A039B13440A461A70039B0D
:10083000013B444A32F81310424A039B22F813103A
:10084000039B013B0393039B002BD5D13E482921F9
:1008500000F03EF90346DAB2374B1A703A482B21C2
:1008600000F036F90346DAB2344B1A7036482D21BF
:1008700000F02EF90346DAB2314B1A700298FFF7F6
:10088000F7FE02464FF47A7303FB02F303F51C53A1
:100890000F332E4AA2FB03235B0B9AB2294B1A801B
:1008A000264B1B785BB2002B09DA244B1B785BB21A
:1008B0005B42274800211A4604F02AFB04E0244842
:1008C0000021002204F024FB1B4B1B785BB2002BA1
:1008D00009DA194B1B785BB25B421D4801211A46AD
:1008E00004F016FB04E01A480121002204F010FB7A
:1008F000184B1B780133DAB2164B1A70154B1B7864
:10090000C72B7FF673AF144B1B78002B01D000224E
:1009100000E0FF22104B1A700F4B1B785BB20C48A3
:1009200003211A4604F0F4FA0A4B00221A705DE71C
:10093000A0620008AC0C0020700C00207C0C002091
:10094000880C0020940C0020DC0B00205917B7D134
:10095000100C0020420F0020430F00200000000078
:1009600008B519482121402200F0DAF81648212163
:1009700000F0AEF8034603F04003002BF6D1124816
:100980002021872200F0CCF80F482221042200F019
:10099000C7F80D48272100F09BF80B48292100F0EB
:1009A00097F809482B2100F093F807482D2100F013
:1009B0008FF80648002104F033FA03482021C722AB
:1009C00000F0AEF808BD00BFDC0B0020040A0020D8
:1009D00000B583B004F05CF904F0AAFD2C4B1B6D4C
:1009E0002B4A126D926B22F400229A6343F69820F0
:1009F00005F09EFA2648274903F09AFB244B1B6D0D
:100A0000234A126D926B42F400229A6322482349D2
:100A100003F05EF82248234904F0EAF9FFF7A0FF4B
:100A20002148224904F054FA21484FF480514FF4F0
:100A3000817202F0C5FD1E484FF400514FF48172DF
:100A400002F0BEFD1A484FF480414FF4817202F06B
:100A5000B7FD17484FF400414FF4817202F0B0FD2A
:100A60000023009313484FF4A4714022124B05F069
:100A70002FFA0023009311484FF4A4714022104B29
:100A800005F026FA4FF4FA6005F052FAFAE700BFD3
:100A9000100A0020306E0008DC0B0020806E000879
:100AA000040A0020906E0008100C0020406E000820
:100AB000000C0240F80D0020D1070008B00C002007
:100AC000F106000800000000000000000000000027
:100AD00000B583B001900B468DF80330019803F008
:100AE0000FF89DF8033063F07F03DAB2094B1A70F8
:100AF000084BFF225A7001980221064A064B03F068
:100B00001FF8019803F00CF8034B5B78184603B00C
:100B10005DF804FB2C0C0020300C002000000000CD
:100B200000B583B001900B468DF8033013468DF865
:100B300002309DF803300F3B302B78D801A252F8D9
:100B400023F000BF2F0C00082F0C00082F0C00080A
:100B50002F0C00082F0C00082F0C00082F0C000889
:100B60002F0C00082F0C00082F0C00082F0C000879
:100B70002F0C00082F0C00082F0C00082F0C000869
:100B80002F0C00082F0C0008090C0008090C0008A5
:100B9000090C00082F0C00082F0C00082F0C00086F
:100BA0002F0C00082F0C00082F0C00082F0C000839
:100BB0002F0C00082F0C00082F0C00082F0C000829
:100BC0002F0C00082F0C0008090C00082F0C00083F
:100BD000090C0008090C0008090C00082F0C00087B
:100BE000090C0008090C0008090C00082F0C00086B
:100BF0002F0C0008090C0008090C0008090C00085B
:100C0000090C0008090C0008019802F079FF094A54
:100C10009DF803301370074A9DF802305370019815
:100C20000221044A02F0ACFF019802F079FF03B000
:100C30005DF804FB2C0C0020000000000000000008
:100C400000B589B00190019B0693069B1B6D05932F
:100C50003D4802F0BDFD02F0CBFD069B1B78012B49
:100C600009D0069BDB6D002B10D1059B5B6903F05F
:100C70001003002B0AD1059B9B6943F01002059BD2
:100C80009A61069B6033184602F0E2FD02F0B8FD5F
:100C900000238DF81F304CE0069800F001FC059B06
:100CA0005B6903F01003002BF6D19DF81F30012281
:100CB00002FA03F30493069BDA6D049B1340002BA6
:100CC00032D002F095FD059B9B6823F00102059B45
:100CD0009A60069BDA6D049BDB431A40069BDA653B
:100CE00002F08EFD9DF81F300698194600F060FC5A
:100CF00003468DF80F3002F07BFD059B9B6843F0A7
:100D00000102059B9A609DF80F3083F00103DBB26E
:100D1000002B07D0059BD3F83428049B1A43059B6E
:100D2000C3F8342802F06CFD9DF81F3001338DF8B4
:100D30001F309DF81F20069B5B6D9B689A42AED9C1
:100D400002F056FD89E700BFB06200080000000015
:100D500082B020230193019B83F3118802B0704776
:100D600082B000230193019B83F3118802B0704786
:100D700008B5FFF7EDFF08BD00000000000000000F
:100D800008B5FFF7EDFF08BD0000000000000000FF
:100D900008B5FFF7EDFF08BD0000000000000000EF
:100DA00008B5FFF7EDFF08BD0000000000000000DF
:100DB00000B583B00190019804F0FAFB03B05DF830
:100DC00004FB00BF00000000000000000000000065
:100DD00008B5FFF7DDFF08BD0000000000000000BF
:100DE00008B5FFF7DDFF08BD0000000000000000AF
:100DF00000B583B0019000910198009905F020F9A9
:100E000003B05DF804FB00BF00000000000000001C
:100E100000B583B001900091009B03F00C03002B00
:100E200002D03048FFF7C4FF019B5B6A1B68019A40
:100E3000526A1268126822F01F021A60019B5B6AF4
:100E40001B681B6803F00103002BF7D1019B5B6A51
:100E50005B68019A526A127A11463D228A401A60F2
:100E6000019B1B6A1B68019A126A1268126822F0C1
:100E70001F021A60019B1B6A1B681B6803F00103B9
:100E8000002BF7D1019B1B6A5B68019A126A127AE8
:100E900011463D228A401A60019B5B681B68002B4B
:100EA0000FD0019B04221A70019B5B681B6801989C
:100EB0009847019B1B78042B06D1019B02221A70D4
:100EC00002E0019B02221A70FFF782FF019B0833A8
:100ED00018460021FFF78CFFFFF782FF03B05DF893
:100EE00004FB00BFC062000800000000000000001A
:100EF00000B583B001900091009B03F00C03002B20
:100F000002D00348FFF754FF03B05DF804FB00BFB5
:100F1000C0620008000000000000000000000000A7
:100F200008B50B4B4FF6FF721A800A4802F0B8FD65
:100F3000084B094ADA61074B084A1A62054B084A0E
:100F40005A62044B074A9A62024B074ADA6208BDAA
:100F50000C0C0020DC0B002000300140106B00085E
:100F6000346B000816000106460001060000000070
:100F700000B585B00190019B1B78012B2DD1019B01
:100F8000364A93421BD1019B1B6A18460A21344AF8
:100F9000019B01F0BDFD03468DF80F30019B5B6A9C
:100FA00018460A212F4A019B01F0B2FD03468DF835
:100FB0000F302D4A2C4B5B6C43F480535364019BE0
:100FC0001B6A1B68019AD2690C329A60019B5B6AAA
:100FD0001B68019AD2690C329A60019B5B685B893D
:100FE00003F40063002B0CD1019B9B6A23F4F042B5
:100FF000019B9A62019BDB6A23F4F042019BDA6257
:101000000FE0019B9B6A23F4F04343F42052019BC1
:101010009A62019BDB6A23F4F04343F42052019B64
:10102000DA62019BDB6900221A60019BDB69019A8D
:101030005268528942F4417292B21A60019BDB6994
:1010400007225A60019BDB69019AD269126842F05B
:1010500040021A6005B05DF804FB00BFDC0B002005
:10106000110E0008F10E00080038024000000000D8
:1010700082B00190019B5B685B68019A526812899B
:10108000114601228A4092B25A8302B0704700BFD3
:1010900082B00190019B5B685B68019A526812897B
:1010A000114601228A4092B21A8302B0704700BFF3
:1010B00084B00390029101920093039B1B6A1B680A
:1010C000009ADA60039B1B6A1B68029A5A60039BB2
:1010D0001B6A1B68039A926A42F480621A60039B3F
:1010E0005B6A1B68019ADA60039B5B6A1B68029A61
:1010F0005A60039B5B6A1B68039AD26A42F480625F
:101100001A60039B1B6A1B68039A126A12681268B2
:1011100042F001021A60039B5B6A1B68039A526AE1
:101120001268126842F001021A6004B0704700BFF2
:1011300084B0039002910192039B1B6A1B681A4AB8
:10114000DA60039B1B6A1B68029A5A60039B1B6A46
:101150001B68039A926A1A60039B5B6A1B68019A78
:10116000DA60039B5B6A1B68029A5A60039B5B6AA6
:101170001B68039AD26A42F480621A60039B1B6A5E
:101180001B68039A126A1268126842F001021A6020
:10119000039B5B6A1B68039A526A1268126842F0EA
:1011A00001021A6004B070470E0C0020000000001D
:1011B00008B5034800F0FCF803F02AFD08BD00BFA5
:1011C000100C0020000000000000000000000000E3
:1011D00008B5054803F06CFE034B04221A74024B59
:1011E000024A9A6108BD00BF100C002000080040B0
:1011F00000B585B00190019B1B78012B24D1019B88
:101200005A4A934215D15A4A594B1B6C43F0040376
:101210001364574A564B1B6A43F004031362544B42
:1012200000221A621E20072103F0EAFA019B514AAC
:101230005A61019B9B6946F668029A61019B9B6912
:1012400046F66802DA6117E0019B9B6900221A608A
:10125000019B9B6900225A63019B9B6900229A6350
:10126000019B9B690022DA63019B9B6900221A643F
:10127000019B9B6900225A62019B5A69019B5B6832
:101280001B68B2FBF3F3013B0293019B9B69029A3B
:101290009A62019B9B69019A9268013ADA62019B0A
:1012A0009B69019A5268D26A5A6000230393019B9A
:1012B0005B68DB6803F00F03012B05D0022B07D11D
:1012C000039B43F002030393039B43F00103039347
:1012D000019B5B685B6903F00F03012B05D0022BB8
:1012E00007D1039B43F020030393039B43F01003B8
:1012F0000393019B5B68DB6903F00F03012B05D0AF
:10130000022B07D1039B43F400730393039B43F425
:1013100080730393019B5B685B6A03F00F03012BEF
:1013200005D0022B07D1039B43F400530393039B87
:1013300043F480530393019B9B69039A1A62019BB8
:101340009B6901225A61019B9B6900221A61019BE2
:101350009B69019A5268126B22F0FF02DA60019BCE
:101360009B6985221A6005B05DF804FB100C002013
:101370000038024000BD0105000000000000000030
:1013800084B003900B4601928DF80B30039B9A6951
:101390009DF80B300C339B001344019A5A6004B043
:1013A000704700BF000000000000000000000000C7
:1013B00000B585B00190019B9B691B690393019B5C
:1013C0009B69DB68DBB2039A13400393019B9B6923
:1013D000039AD2431A61039B03F00203002B09D046
:1013E000019B5B681B69002B04D0019B5B681B6938
:1013F00001989847039B03F00403002B09D0019B3D
:101400005B689B69002B04D0019B5B689B6901981A
:101410009847039B03F00803002B09D0019B5B68EE
:101420001B6A002B04D0019B5B681B6A01989847DC
:10143000039B03F01003002B09D0019B5B689B6AA0
:10144000002B04D0019B5B689B6A01989847039B23
:1014500003F00103002B09D0019B5B689B68002B04
:1014600004D0019B5B689B680198984705B05DF8C4
:1014700004FB00BF000000000000000000000000AE
:1014800008B503F045FA08BD0000000000000000A8
:10149000704700BF000000000000000000000000D6
:1014A00010B586B00190019B1B6D1B6A0593059BCF
:1014B00003F4F013B3F5002F71D0B3F5402F03D030
:1014C000B3F5802F1CD06AE0059A47F6F0731340FD
:1014D0001B090493059B03F00F030393019B1B6DF2
:1014E00003F58051019A039B02339B0013445B6810
:1014F0001B6A08461946049A082302F0A1FA4EE036
:10150000059A47F6F07313401B090493059B03F0FB
:101510000F030393019B1B6D03F58050019A039BFE
:1015200002339B0013445B689B699C68019A039B90
:1015300002339B0013445B689B691A680199039B03
:1015400002339B000B445B689B695B68D31A21469E
:10155000049A02F075FA019A039B02339B0013442C
:101560005B689A690199039B02339B000B445B689B
:101570009B699968049B0B449360019A039B023317
:101580009B0013445B689A690199039B02339B009B
:101590000B445B689B695968049B0B44536006B01D
:1015A00010BD00BF000000000000000000000000AF
:1015B00000B585B001900B468DF803309DF80330DF
:1015C000019A02339B0013445B685B695A689DF87B
:1015D0000330019902339B000B445B685B691B6815
:1015E0009A4201D3012376E09DF80330019A023339
:1015F0009B0013445B685B691A689DF8033001998E
:1016000002339B000B445B685B695B68D31A0393EE
:101610009DF80330019A02339B0013445B681B8AD8
:101620001A46039B9A4208D29DF80330019A02336E
:101630009B0013445B681B8A0393019B1A6D9DF802
:1016400003305B01134403F618131B689BB29A0026
:10165000039B9A4201D200233DE0019B1A6D9DF845
:10166000033001331B03D1189DF80330019A023374
:101670009B0013445B685B699B6808461946039AA4
:1016800002F0C6F99DF80330019A02339B0013441F
:101690005B685A699DF80330019902339B000B4443
:1016A0005B685B699968039B0B4493609DF803300A
:1016B000019A02339B0013445B685A699DF803301A
:1016C000019902339B000B445B685B695968039B7B
:1016D0000B44536072E7184605B05DF804FB00BF89
:1016E00000B587B001900B468DF80330019B1B6D50
:1016F00005939DF80330059A5B01134403F6081324
:101700001B6804939DF80330059A5B01134403F6AC
:101710000813049A1A60049B03F00103002B63D0A2
:10172000059BD3F8103803F00103002B5CD09DF823
:101730000330019A02339B0013445B685B69039397
:10174000039B1A68039B1B699A4214D2039B1A6974
:10175000039B1B68D21A039B1A60039B00225A60EA
:1017600002F056F89DF803300198194600F0E8FEA3
:1017700002F056F838E0019B1B8999B29DF80330BE
:10178000012202FA03F39BB2DB439BB20A461340E9
:101790009BB29AB2019B1A819DF80330019A0233E1
:1017A0009B0013445B689B68002B0CD09DF80330B2
:1017B000019A02339B0013445B689B689DF80320E9
:1017C00001981146984702F023F89DF80330019ADA
:1017D00002339B0013445B685B690C33184600219D
:1017E00002F046F802F01CF8049B03F08003002B83
:1017F0002BD0059BD3F834289DF80330012101FA42
:1018000003F31340002B20D002F002F8019BDB6DA4
:101810009DF80320012101FA02F21A43019BDA65C7
:10182000059BD3F834389DF80320012101FA02F218
:10183000D2431A40059BC3F83428019B60331846F5
:10184000002102F015F801F0EBFF07B05DF804FB92
:1018500000B587B001900B468DF80330019B1B6DDE
:1018600005939DF80330059A5B01134403F6083392
:101870001B6804939DF80330059A5B01134403F63B
:101880000833049A1A60049B03F00803002B13D05A
:10189000059BD3F8143803F00803002B0CD09DF8F7
:1018A0000330019A02339B0013445B685B689DF828
:1018B0000320019811469847049B03F00103002B75
:1018C0007ED0059BD3F8143803F00103002B77D0AA
:1018D0009DF80330019A02339B0013445B689B69B7
:1018E0000393039B5A689DF80330019902339B00D0
:1018F0000B445B685B8AB2FBF3F103FB01F3D31A81
:10190000002B1AD1039B1A68039B1B699A4214D2BD
:10191000039B1A69039B1B68D21A039B1A60039BE3
:1019200000225A6001F074FF9DF8033001981946B7
:1019300000F066FD01F074FF42E0019B5B8999B203
:101940009DF80330012202FA03F39BB2DB439BB202
:101950000A4613409BB29AB2019B5A819DF803300C
:10196000019A02339B0013445B68DB68002B0CD0A8
:101970009DF80330019A02339B0013445B68DB68D7
:101980009DF8032001981146984701F041FF9DF80A
:101990000330019A02339B0013445B689B6903F197
:1019A0000C019DF80330019A02339B0013445B68DD
:1019B0009B695B680846194601F05AFF01F030FF49
:1019C00007B05DF804FB00BF00000000000000004D
:1019D00000B585B00190019B1B6D029300238DF82B
:1019E0000F3093E09DF80F30029A48335B011344A7
:1019F0001B6803F44023B3F5802F40F082809DF8EC
:101A00000F30029A48335B0113441B68002B78DACD
:101A10009DF80F309DF80F200299483252010A4478
:101A2000126842F09042029948335B010B441A60FD
:101A30009DF80F30029A48335B0113441B68002B5A
:101A4000F6DB9DF80F300198194601F0A1FF019BCC
:101A50001B8999B29DF80F30012202FA03F39BB261
:101A6000DB439BB20A4613409BB29AB2019B1A8198
:101A70009DF80F30019A02339B0013445B689B680A
:101A8000002B0CD09DF80F30019A02339B001344B9
:101A90005B689B689DF80F2001981146984701F0FC
:101AA000B7FE9DF80F30019A02339B0013445B6828
:101AB0005B690C331846002101F0DAFE01F0B0FE3C
:101AC00001F0A6FE029BD3F834389DF80F200121C7
:101AD00001FA02F2D2431A40029BC3F83428019B58
:101AE000DB6D9DF80F20012101FA02F21A43019BE0
:101AF000DA65019B60331846002101F0B9FE01F060
:101B00008FFE9DF80F3001338DF80F309DF80F20B8
:101B1000019B5B6D9B689A427FF664AF05B05DF8F0
:101B200004FB00BF000000000000000000000000F7
:101B300000B585B00190019B1B6D029300238DF8C9
:101B40000F305CE09DF80F30029A58335B0113446C
:101B50001B6803F44023B3F5802F4BD19DF80F3061
:101B6000029A58335B0113441B68002B42DA019B35
:101B70005B8999B29DF80F30012202FA03F39BB200
:101B8000DB439BB20A4613409BB29AB2019B5A8137
:101B90009DF80F30019A02339B0013445B68DB68A9
:101BA000002B0CD09DF80F30019A02339B00134498
:101BB0005B68DB689DF80F2001981146984701F09B
:101BC00027FE9DF80F30019A02339B0013445B6897
:101BD0009B6903F10C019DF80F30019A02339B00C1
:101BE00013445B689B695B680846194601F040FE38
:101BF00001F016FE9DF80F3001338DF80F309DF87F
:101C00000F20019B5B6D9B689A429BD905B05DF8E4
:101C100004FB00BF00000000000000000000000006
:101C200000B587B00190019B1B6D0593059B5B6917
:101C30000493059B9B69049A13400493059B049AA3
:101C40005A61049B03F48053002B06D0019B0022B1
:101C5000DA65019802F064FBCEE0049B002B19DAF0
:101C6000059BD3F8003E03F00303002B07D0059B30
:101C7000D3F8003E23F00302059BC3F8002E059B1A
:101C8000D3F8043843F00102059BC3F804280198F7
:101C900002F016FC049B03F40063002B05D0019BAB
:101CA0000022DA65019802F0B3FB049B03F40053B1
:101CB000002B17D0059BD3F8083803F00603002B40
:101CC00008D1059BDB6823F4705343F41052059B45
:101CD000DA6007E0059BDB6823F4705343F4A052FD
:101CE000059BDA60049B03F00803002B09D0019BDD
:101CF0005B68DB68002B04D0019B5B68DB680198A4
:101D00009847049B03F48013002B02D00198FFF73F
:101D10005FFE049B03F40013002B02D00198FFF731
:101D200007FF049B03F01003002B0FD001F070FDA0
:101D3000059B9B6923F01002059B9A61019B603310
:101D40001846002101F094FD01F06AFD059BD3F8CF
:101D500018380393049B03F48023002B23D0039BA8
:101D600003F00103002B03D001980021FFF7B8FC1A
:101D7000039B03F00203002B03D001980121FFF71E
:101D8000AFFC039B03F00403002B03D00198022156
:101D9000FFF7A6FC039B03F00803002B03D0019878
:101DA0000321FFF79DFC049B03F40023002B23D0A9
:101DB000039B03F48033002B03D001980021FFF72D
:101DC00047FD039B03F40033002B03D0019801214E
:101DD000FFF73EFD039B03F48023002B03D0019803
:101DE0000221FFF735FD039B03F40023002B03D0F2
:101DF00001980321FFF72CFD07B05DF804FB00BF3D
:101E000008B50348FFF70CFF02F002FF08BD00BF52
:101E1000100A002000000000000000000000000088
:101E200000B583B0134802F05BF9124B00221A662A
:101E3000104B4FF0A0421A650E4B0F4A5A650D4BDE
:101E400000225A660D4B0193019B443301981946B9
:101E5000FF2203F0FDFF019B03F14402019B03F508
:101E6000A47310461946552203F0F2FF03B05DF843
:101E700004FB00BF100A0020A06B0008780A0020B5
:101E800000B587B00390039B1B6D0593039B1B78E4
:101E9000012B70D1039B394A934219D1384A384BF0
:101EA0005B6B43F080035363354A354B5B6943F00A
:101EB00080035361324B00225A6143200E2102F00D
:101EC0009FFC059B2F4ADA60059B2F4AC3F8002828
:101ED000039B0022DA65059B0022C3F8002E059BB8
:101EE000C0221A60059B4FF450229A63039801F0B8
:101EF000CFFC059B00229A60039801F0E9FC059B4A
:101F00000022C3F81028059B0022C3F81428059B63
:101F10000022C3F81C28039B5B68DB68002B03D1FD
:101F2000059B1A4A9A6102E0059B194A9A61059B32
:101F30004FF0FF325A61039B5B6E002B15D1039B60
:101F400003F16802039B009310464FF4A471022230
:101F5000104B03F095FF0246039B5A66039B5B6E92
:101F6000184601F025FC03F043FE059B9B6843F0F7
:101F70000102059B9A6007B05DF804FB100A00207F
:101F8000003802404014004003002002003C30C0F2
:101F9000083C30C0410C00080000000000000000B8
:101FA00010B584B00190019B1B6D02930198002134
:101FB00001F0EEFC029B0022C3F83428029B4FF094
:101FC0000112C3F81C280023039324E0029A039B08
:101FD00048335B0113444FF000621A60029A039B7E
:101FE00058335B0113444FF000621A60029A039B5E
:101FF0005B01134403F608134FF0FF321A60029A94
:10200000039B5B01134403F608334FF0FF321A6061
:10201000039B01330393019B5B6D9A68039B9A4278
:10202000D4D2019801F0D4FC019B5B6D1A68029B2D
:102030005A62019801F094FC029BD3F8003823F413
:10204000FE62029BC3F80028029B9B6943F4402375
:1020500043F01003029A9361029B0922C3F81028EF
:10206000029B0922C3F81428019B164ADA60029BDE
:102070000022C3F8102B402343F0805343F4004365
:10208000029AC2F8003B029B0022C3F810294023A9
:1020900043F0805343F40043029AC2F800394023CE
:1020A0009B089BB21B041C4640239B089BB20198D3
:1020B000194601F09DFC034644EA0302029B9A6222
:1020C00004B010BD706B00080000000000000000AC
:1020D00084B00190019B1B6D0393039BD3F80038E0
:1020E00023F4FE63019A92F84E2012011A43039BD7
:1020F000C3F8002804B07047000000000000000092
:1021000030B587B001900B468DF80330019B1B6DF5
:1021100003939DF80330019A02339B0013445B68DC
:102120001B6803F00303032B00F2068101A252F89F
:1021300023F000BF452100084B2100085121000871
:10214000572100087D4B059307E07D4B059304E084
:102150007C4B059301E07C4B05939DF80330039A7B
:102160005B01134403F5316300221A609DF80330CC
:10217000019A02339B0013445B689B69002B20D0BB
:102180009DF803009DF80330019A02339B0013442D
:102190005B685B8A1A46059B1A43039900F1580352
:1021A0005B010B441A60039BD3F81C289DF8033095
:1021B0001033012101FA03F31A43039BC3F81C28CF
:1021C0001DE09DF803309DF8032003995832520119
:1021D0000A44126822F40042039958335B010B440D
:1021E0001A60039BD3F81C289DF80330103301219B
:1021F00001FA03F3DB431A40039BC3F81C289DF844
:102200000330039A5B01134403F5116300221A6043
:102210009DF80330019A02339B0013445B685B69AD
:10222000002B5DD09DF80330019A02339B001344CC
:102230005B681B8A9B089BB204939DF80330019A4C
:1022400002339B0013445B689B8B012B0CD99DF8D8
:102250000330019A02339B0013445B689B8B1A4640
:10226000049B02FB03F304939DF803305C1E049B64
:102270001D040198049901F0BBFB034645EA0302E3
:10228000039904F140039B000B445A609DF803300E
:102290000198194601F07CFB9DF803009DF803307E
:1022A0009B051A46059B1A439DF80330019902339A
:1022B0009B000B445B681B8A1A43039900F1480397
:1022C0005B010B441A60039BD3F81C289DF8033074
:1022D000012101FA03F31A43039BC3F81C282BE0E6
:1022E0009DF80330013B039A40339B001344174A87
:1022F0005A609DF803300198194601F049FB9DF89A
:1023000003309DF803200399483252010A441268B1
:1023100022F40042039948335B010B441A60039B8B
:10232000D3F81C289DF80330012101FA03F3DB43A5
:102330001A40039BC3F81C2807B030BD0080001072
:10234000008004100080081000800C1000040002BF
:1023500084B001900B468DF80330019B1A6D9DF8F7
:10236000033058335B0113441B680393039B03F44E
:102370000043002B01D1002307E0039B03F400136B
:10238000002B01D0012300E00223184604B070475F
:1023900084B001900B468DF80330019B1A6D9DF8B7
:1023A000033048335B0113441B680393039B03F41E
:1023B0000043002B01D1002307E0039B03F400132B
:1023C000002B01D0012300E00223184604B070471F
:1023D00000B585B003900B4601928DF80B309DF847
:1023E0000B30039A02339B0013445B681B6A01980D
:1023F00019460822FDF764FF05B05DF804FB00BF35
:1024000086B001900B468DF803309DF80330019A99
:1024100002339B0013445B689B690593059B1A6814
:10242000059B1A619DF80330002B06D1059B1B68A4
:10243000402B02D9059B40221A60059B1A689DF823
:102440000330019902339B000B445B685B8A1344A1
:102450005A1E9DF80330019902339B000B445B68C0
:102460005B8AB2FBF3F304939DF80330019A0233C5
:102470009B0013445B685B8A1A46049B03FB02F3D0
:10248000033323F003030393019B196D9DF803307D
:10249000049AD004039A024342F0C0425B010B4409
:1024A00003F531631A609DF80330019A02339B00F3
:1024B00013445B681B6803F00303012B2CD1019BC1
:1024C0001B6DD3F8083803F48073002B12D0019BE6
:1024D000196D9DF80330019A106D9DF80320583254
:1024E00052010244126842F0805258335B010B449F
:1024F0001A6011E0019B196D9DF80330019A106D6F
:102500009DF80320583252010244126842F00052F2
:1025100058335B010B441A60019B196D9DF8033021
:10252000019A106D9DF8032058325201024412683E
:1025300042F0044258335B010B441A6006B0704706
:1025400084B001900B468DF803309DF80330019A5A
:1025500002339B0013445B685B690393039B1A6817
:10256000039B1A61039B1B68002B0BD1019B1A6D07
:102570009DF803305B01134403F511634FF400220F
:102580001A6031E09DF80330002B06D1039B1B68D5
:10259000402B02D9039B40221A60039B1A689DF8C6
:1025A0000330019902339B000B445B681B8A134480
:1025B0005A1E9DF80330019902339B000B445B685F
:1025C0001B8AB2FBF3F30293019B196D9DF8033054
:1025D000029AD004039A1268024342F000525B014F
:1025E0000B4403F511631A609DF80330019A02331E
:1025F0009B0013445B681B6803F00303012B2CD181
:10260000019B1B6DD3F8083803F48073002B12D0A4
:10261000019B196D9DF80330019A106D9DF8032000
:10262000483252010244126842F0805248335B0142
:102630000B441A6011E0019B196D9DF80330019A5B
:10264000106D9DF80320483252010244126842F096
:10265000005248335B010B441A60019B196D9DF8D1
:102660000330019A106D9DF8032048325201024454
:10267000126842F0044248335B010B441A60019B2C
:102680001B6D019A126DD2F834189DF803200120B9
:1026900000FA02F20A43C3F8342804B0704700BFBE
:1026A00082B001900B468DF80330019B196D9DF8A7
:1026B0000330019A106D9DF80320583252010244F4
:1026C000126842F4001258335B010B441A6002B0E6
:1026D000704700BF00000000000000000000000084
:1026E00082B001900B468DF80330019B196D9DF867
:1026F0000330019A106D9DF80320483252010244C4
:10270000126842F4001248335B010B441A6002B0B5
:10271000704700BF00000000000000000000000043
:1027200082B001900B468DF80330019B196D9DF826
:102730000330019A106D9DF8032058325201024473
:10274000126822F4001258335B010B441A6002B085
:10275000704700BF00000000000000000000000003
:1027600082B001900B468DF80330019B196D9DF8E6
:102770000330019A106D9DF8032048325201024443
:10278000126822F4001248335B010B441A6002B055
:10279000704700BF000000000000000000000000C3
:1027A00000B583B00B4B5B6803F03D030193094A0E
:1027B000019BD360084B1B6A002B06D0064B1B6A9B
:1027C000054A526A10460199984702F021FA03B06F
:1027D0005DF804FB00600240840900200000000056
:1027E00000B583B00C4B5B689B0903F03D0301937C
:1027F000094A019B9B01D360084B9B6A002B06D0C2
:10280000064B9B6A054AD26A10460199984702F026
:10281000FFF903B05DF804FB00600240840900206A
:1028200000B583B00C4B5B681B0C03F03D030193B8
:10283000094A019B1B04D360084B1B6B002B06D07D
:10284000064B1B6B054A526B10460199984702F0E4
:10285000DFF903B05DF804FB00600240840900204A
:1028600000B583B00C4B5B689B0D03F03D030193F7
:10287000094A019B9B05D360084B9B6B002B06D03C
:10288000064B9B6B054AD26B10460199984702F0A4
:10289000BFF903B05DF804FB00600240840900202A
:1028A00000B583B00B4B1B6803F03D030193094A4D
:1028B000019B9360084B1B6C002B06D0064B1B6CD6
:1028C000054A526C10460199984702F0A1F903B0ED
:1028D0005DF804FB00640240840900200000000051
:1028E00000B583B00C4B1B689B0903F03D030193BB
:1028F000094A019B9B019360084B9B6C002B06D0FF
:10290000064B9B6C054AD26C10460199984702F021
:102910007FF903B05DF804FB0064024084090020E5
:1029200000B583B00C4B1B681B0C03F03D030193F7
:10293000094A019B1B049360084B1B6D002B06D0BA
:10294000064B1B6D054A526D10460199984702F0DF
:102950005FF903B05DF804FB0064024084090020C5
:1029600000B583B00C4B1B689B0D03F03D03019336
:10297000094A019B9B059360084B9B6D002B06D079
:10298000064B9B6D054AD26D10460199984702F09F
:102990003FF903B05DF804FB0064024084090020A5
:1029A00000B583B00B4B5B6803F03D030193094A0C
:1029B000019BD360084B1B6E002B06D0064B1B6E91
:1029C000054A526E10460199984702F021F903B06A
:1029D0005DF804FB00640240840900200000000050
:1029E00000B583B00C4B5B689B0903F03D0301937A
:1029F000094A019B9B01D360084B9B6E002B06D0BC
:102A0000064B9B6E054AD26E10460199984702F01C
:102A1000FFF803B05DF804FB006402408409002065
:102A200000B583B00C4B5B681B0C03F03D030193B6
:102A3000094A019B1B04D360084B1B6F002B06D077
:102A4000064B1B6F054A526F10460199984702F0DA
:102A5000DFF803B05DF804FB006402408409002045
:102A600000B583B00C4B5B689B0D03F03D030193F5
:102A7000094A019B9B05D360084B9B6F002B06D036
:102A8000064B9B6F054AD26F10460199984702F09A
:102A9000BFF803B05DF804FB006402408409002025
:102AA00082B0164B00221A600023019311E01449F2
:102AB000019A13465B0013449B000B441B680022E1
:102AC0001A60104A019B002142F83310019B013328
:102AD0000193019B0F2BEAD90B4B4FF0FF329A6009
:102AE000094B4FF0FF32DA60084B4FF0FF329A602B
:102AF000064B4FF0FF32DA6002B0704780090020C9
:102B0000B06A0008840900200060024000640240AE
:102B100000B585B00390029101920093039B5B7A0C
:102B20001A46012303FA02F2314B1B681340002BB3
:102B300001D0012358E0039B5B7A19462D4A019B83
:102B400042F83130039B5B7A2A4ADB001344009A37
:102B50005A60039B5B7A1A46012303FA02F2244B64
:102B60001B681343224A1360214B1B68DBB2002B06
:102B700005D0214A204B1B6B43F4001313631C4BFD
:102B80001B6803F47F43002B05D01B4A1A4B1B6BB9
:102B900043F480031363039B1B68039A1268126853
:102BA00022F01F021A60039B1B681B6803F00103DD
:102BB000002BF8D1039B5B68039A127A11463D22E1
:102BC0008A401A60039B1B6800221A60039B1B68E3
:102BD00021225A61019B002B05D0039B9B7A18464A
:102BE000029901F00DFE0023184605B05DF804FBC4
:102BF0008009002084090020003802400000000005
:102C000082B020230193019B83F3118802B07047A7
:102C100082B000230193019B83F3118802B07047B7
:102C200008B5FFF7EDFF08BD000000000000000040
:102C300008B5FFF7EDFF08BD000000000000000030
:102C400008B5FFF7EDFF08BD000000000000000020
:102C500008B5FFF7EDFF08BD000000000000000010
:102C600008B5FFF7EDFF08BD000000000000000000
:102C700008B5FFF7EDFF08BD0000000000000000F0
:102C800008B502F0A5FC08BD00000000000000002F
:102C900008B54FF080431B6903F00203002B09D0F5
:102CA0004FF0804300221A61FFF7DAFFFFF7E8FFD9
:102CB000FFF7DEFF01F0ACFF08BD00BF0000000021
:102CC00008B5194A184B1B6C43F001031364174AEB
:102CD000164B9B6843F0010393604FF0804342F230
:102CE000CF029A624FF080434FF0FF32DA624FF02A
:102CF000804300229A614FF0804300225A634FF0D4
:102D000080430022DA604FF0804300225A604FF087
:102D1000804301225A614FF0804301221A601C2037
:102D2000082101F06DFD08BD00380240002004E0DC
:102D300008B5024802F04CF808BD00BF040A0020A4
:102D400000B585B00190019B1B78012B01D100F0EB
:102D50006FFB0023039314E0019B5B68039A53F815
:102D6000323003F00403002B04D00198039900F0E3
:102D70000FF803E00198039900F09AF8039B0133E0
:102D80000393039B162BE7D905B05DF804FB00BF46
:102D900086B001900091009B03F01F03012202FA0C
:102DA00003F30593009B0F2B27D8009B9B080493EC
:102DB000009B03F003039B001A460F239340DB4361
:102DC0000393019B5B68009A53F8323003F0F003E1
:102DD0001B09009A02F003029200934002933049CB
:102DE0002F4A049B023352F82320039B1A40029B74
:102DF0001A43049B023341F82320019B5B68009A2D
:102E000053F8323003F00103002B06D02549254B3F
:102E10009A68059B13438B6006E02249214B9A6810
:102E2000059BDB4313408B60019B5B68009A53F862
:102E3000323003F00203002B06D01A49194BDA682E
:102E4000059B1343CB6006E01649164BDA68059BD9
:102E5000DB431340CB60019B5A68009BDB001344AB
:102E60005B68002B0DD00F490E4B1A68059B13436E
:102E70000B600C490B4B5A68059BDB4313404B60BE
:102E80000CE00849074B5A68059B13434B60054902
:102E9000044B1A68059BDB4313400B6006B0704778
:102EA00000380140003C014000000000000000002C
:102EB00084B001900091009B03F01F03012202FAED
:102EC00003F303931049104B1A68039BDB43134031
:102ED0000B600D490C4B5A68039BDB4313404B605E
:102EE0000949094B9A68039BDB4313408B600649F1
:102EF000054BDA68039BDB431340CB60024A039B1C
:102F0000536104B0704700BF003C01400000000066
:102F100000B583B00E4B5B6901930D4B1B6803F04A
:102F20000103019A13400193094A019B5361019BDC
:102F300003F00103002B05D0064B5B685B68054876
:102F40000021984701F064FE03B05DF804FB00BF68
:102F5000003C0140040A00200000000000000000C6
:102F600000B583B00E4B5B6901930D4B1B6803F0FA
:102F70000203019A13400193094A019B5361019B8B
:102F800003F00203002B05D0064B5B68DB680548A5
:102F90000121984701F03CFE03B05DF804FB00BF3F
:102FA000003C0140040A0020000000000000000076
:102FB00000B583B00E4B5B6901930D4B1B6803F0AA
:102FC0000403019A13400193094A019B5361019B39
:102FD00003F00403002B05D0064B5B685B690548D2
:102FE0000221984701F014FE03B05DF804FB00BF16
:102FF000003C0140040A0020000000000000000026
:1030000000B583B00E4B5B6901930D4B1B6803F059
:103010000803019A13400193094A019B5361019BE4
:1030200003F00803002B05D0064B5B68DB690548FD
:103030000321984701F0ECFD03B05DF804FB00BFED
:10304000003C0140040A00200000000000000000D5
:1030500000B583B00E4B5B6901930D4B1B6803F009
:103060001003019A13400193094A019B5361019B8C
:1030700003F01003002B05D0064B5B685B6A054824
:103080000421984701F0C4FD03B05DF804FB00BFC4
:10309000003C0140040A0020000000000000000085
:1030A00000B583B0244B5B690193234B1B6803F489
:1030B0007873019A134001931F4A019B5361019B4E
:1030C00003F02003002B05D01C4B5B68DB6A1B4818
:1030D00005219847019B03F04003002B05D0174BB7
:1030E0005B685B6B154806219847019B03F08003E2
:1030F000002B05D0114B5B68DB6B1048072198470C
:10310000019B03F48073002B05D00C4B5B685B6C58
:103110000A4808219847019B03F40073002B05D04F
:10312000064B5B68DB6C05480921984701F070FD90
:1031300003B05DF804FB00BF003C0140040A00201E
:1031400000B583B0294B5B690193284B1B6803F4DE
:103150007C43019A13400193244A019B5361019BD4
:1031600003F48063002B05D0214B5B685B6D204826
:103170000A219847019B03F40063002B05D01C4BE8
:103180005B68DB6D1A480B219847019B03F4805361
:10319000002B05D0164B5B685B6E15480C219847D9
:1031A000019B03F40053002B05D0114B5B68DB6ED1
:1031B0000F480D219847019B03F48043002B05D055
:1031C0000B4B5B685B6F0A480E219847019B03F429
:1031D0000043002B05D0064B5B68DB6F04480F21D2
:1031E000984701F015FD03B05DF804FB003C014079
:1031F000040A0020000000000000000000000000A1
:1032000000B583B00D4B5B6901930C4B1B6803F455
:1032100080330193094A019B5361019B03F480337E
:10322000002B06D0064B5B68D3F88430044810218D
:10323000984701F0EDFC03B05DF804FB003C014051
:10324000040A002000000000000000000000000050
:1032500000B583B00D4B5B6901930C4B1B6803F405
:1032600000330193094A019B5361019B03F400332E
:10327000002B06D0064B5B68D3F88C300448112134
:10328000984701F0C5FC03B05DF804FB003C014029
:10329000040A002000000000000000000000000000
:1032A00000B583B00E4B5B6901930D4B1B6803F4B3
:1032B0008023019A13400193094A019B5361019BAA
:1032C00003F48023002B06D0064B5B68D3F89430C0
:1032D00004481221984701F09BFC03B05DF804FB01
:1032E000003C0140040A0020000000000000000033
:1032F00000B583B00E4B5B6901930D4B1B6803F463
:103300000023019A13400193094A019B5361019BD9
:1033100003F40023002B06D0064B5B68D3F89C30E7
:1033200004481321984701F073FC03B05DF804FBD7
:10333000003C0140040A00200000000000000000E2
:1033400000B583B00E4B5B6901930D4B1B6803F412
:103350008013019A13400193094A019B5361019B19
:1033600003F48013002B06D0064B5B68D3F8A4301F
:1033700004481421984701F04BFC03B05DF804FBAE
:10338000003C0140040A0020000000000000000092
:1033900000B583B00E4B5B6901930D4B1B6803F4C2
:1033A0000013019A13400193094A019B5361019B49
:1033B00003F40013002B06D0064B5B68D3F8AC3047
:1033C00004481521984701F023FC03B05DF804FB85
:1033D000003C0140040A0020000000000000000042
:1033E00000B583B00E4B5B6901930D4B1B6803F472
:1033F0008003019A13400193094A019B5361019B89
:1034000003F48003002B06D0064B5B68D3F8B4307E
:1034100004481621984701F0FBFB03B05DF804FB5C
:10342000003C0140040A00200000000000000000F1
:1034300008B50620062101F0E3F90720062101F076
:10344000DFF90820062101F0DBF90920062101F04F
:10345000D7F90A20062101F0D3F91720062101F03F
:10346000CFF92820062101F0CBF90120062101F037
:10347000C7F929200F2101F0C3F92A20062101F004
:10348000BFF93E20062101F0BBF94C20062101F0D6
:10349000B7F902200F2101F0B3F903200F2101F049
:1034A000AFF908BD000000000000000000000000AF
:1034B00082B001900091009B5A68019B5A60009B6A
:1034C0009A68019B9A60009BDA68019BDA60009B16
:1034D0001A69019B5A61009B5A69019B1A62009B01
:1034E0009A69019B5A62009B1A68019B1A6002B09C
:1034F000704700BF00000000000000000000000056
:1035000000B583B00190244A234B1B6B6FEA532311
:103510006FEA43231363204A1F4B1B6D6FEA53234B
:103520006FEA43231365019B1C481946FFF7C0FF50
:10353000019B1C331A481946FFF7BAFF019B383329
:1035400018481946FFF7B4FF019B54331648194633
:10355000FFF7AEFF019B703314481946FFF7A8FF31
:10356000019B8C3312481946FFF7A2FF019BA83339
:1035700010481946FFF79CFF019BC4330E481946BB
:10358000FFF796FF019BE0330C481946FFF790FFC9
:1035900003B05DF804FB00BF0038024000000240A9
:1035A0000004024000080240000C024000100240EB
:1035B0000014024000180240001C0240002002409B
:1035C0008EB0039002910192019B03F003030D93CF
:1035D000019B03F004039B080C93019B03F0180369
:1035E000DB080B93019B03F060035B090A93019BCB
:1035F00003F4F063DB09089300230993029B03F0B3
:103600000103002B77D0099B03F007039B001A46A8
:10361000089B93400793099B012202FA03F3069348
:10362000099B5B001A46032393400593099B03F013
:1036300007039B001A460F2393400493039B5A6889
:10364000069BDB431A400C9B1A43039B5A60039B67
:103650009A68059BDB431A400B9B1A43039B9A60B5
:10366000039BDA68059BDB431A400A9B1A43039BC2
:10367000DA600D9B022B1FD1099B072B09D8039BF6
:103680001A6A049BDB431A40079B1A43039B1A6286
:1036900008E0039B5A6A049BDB431A40079B1A43CA
:1036A000039B5A62039B1A68059BDB431A400D9BE0
:1036B0001A43039B1A601EE0039B1A68059BDB43B9
:1036C0001A400D9B1A43039B1A60099B072B09D8CC
:1036D000039B1A6A049BDB431A40079B1A43039B14
:1036E0001A6208E0039B5A6A049BDB431A40079B5B
:1036F0001A43039B5A62029B5B080293029B002BB6
:103700000FD00C9B5B000C930B9B9B000B930A9BB5
:103710009B000A930D9B9B000D93099B013309931A
:103720006CE70EB0704700BF000000000000000012
:1037300082B020230193019B83F3118802B070476C
:1037400082B000230193019B83F3118802B070477C
:1037500008B5FFF7EDFF08BD000000000000000005
:1037600008B5FFF7EDFF08BD0000000000000000F5
:1037700008B5FFF7DDFF08BD0000000000000000F5
:1037800008B5FFF7DDFF08BD0000000000000000E5
:1037900008B5FFF7DDFF08BD0000000000000000D5
:1037A00008B5FFF7DDFF08BD0000000000000000C5
:1037B00000B583B00190019802F02AF9034618463B
:1037C00003B05DF804FB00BF000000000000000033
:1037D00082B00190024B9B69019A9A6102B07047D6
:1037E00008080020000000000000000000000000A9
:1037F00008B5FFF7BDFF08BD000000000000000095
:1038000008B5FFF7BDFF08BD000000000000000084
:1038100008B5FFF7BDFF08BD000000000000000074
:1038200008B5FFF7BDFF08BD000000000000000064
:1038300000B583B00190019801F0EAFE03B05DF895
:1038400004FB00BF000000000000000000000000BA
:1038500000B583B00190019802F0DAFB03461846E8
:1038600003B05DF804FB00BF000000000000000092
:1038700000B583B0019000910198009902F0E0FB3F
:1038800003B05DF804FB00BF000000000000000072
:1038900000B585B00190019B1B6D03932020FFF7BD
:1038A000C7FF039B01221A61039B1B6903F00103FD
:1038B000002BF9D11220FFF7BBFF039B1B69002BE4
:1038C000FBDA05B05DF804FB00000000000000001A
:1038D00084B00190019B1B6D02930023039332E09F
:1038E000029A039B48335B01134400221A60029A38
:1038F000039B5B01134403F5116300221A60029AD3
:10390000039B5B01134403F608134FF0FF321A6068
:10391000029A039B58335B01134400221A60029AF7
:10392000039B5B01134403F5316300221A60029A82
:10393000039B5B01134403F608334FF0FF321A6018
:10394000039B01330393019B5B6D9A68039B9A422F
:10395000C6D2029B4FF00112C3F81C2804B0704776
:1039600000B585B00190019B1B6D0393039B102252
:103970001A61039B1B6903F01003002BF9D112207D
:10398000FFF756FF05B05DF804FB00BF0000000024
:1039900000B585B001900091019B1B6D0393009BC6
:1039A0009B0143F02002039B1A61039B1B6903F0F8
:1039B0002003002BF9D11220FFF73AFF05B05DF884
:1039C00004FB00BF00000000000000000000000039
:1039D00082B00190019B5B6D1A68019B9A6502B0F1
:1039E000704700BF00000000000000000000000061
:1039F00084B001900091019B9B6D0393019B9A6D94
:103A0000009B1A44019B9A65039B184604B07047BB
:103A100084B0039002910192029B1A68039B1A6082
:103A2000019B042B06D9019B043B0193029B0433A9
:103A30000293F1E704B070470000000000000000AE
:103A400086B0039002910192009300230593002316
:103A5000049317E0049B03F00303002B02D1039BA4
:103A60001B680593049A009B9A4208D2029B5A1C39
:103A70000292059AD2B21A70059B1B0A0593049B09
:103A800001330493049A019B9A42E3D306B0704732
:103A900008B5FDF745FA08BD000000000000000071
:103AA00000B583B00190019B01221A70019B002296
:103AB0005A60019B00229A60019B0C33184601F06A
:103AC00087FA03B05DF804FB00000000000000006E
:103AD00000B583B00190009101F05AFA019B009A61
:103AE0005A600198FDF744FA019B02221A7001F016
:103AF00057FA03B05DF804FB00000000000000006E
:103B000000B583B0019001F043FA0198FDF7B0FAD7
:103B100001F046FA03B05DF804FB00BF00000000AE
:103B200000B583B0019001F033FA0198FDF7B0FAC7
:103B300001F036FA03B05DF804FB00BF000000009E
:103B400000B585B0039002910192009301F020FA34
:103B5000039B03221A7003980299019A009BFDF7B8
:103B6000A7FA039B0833184601F022FA01F018FA6D
:103B700005B05DF804FB00BF00000000000000007D
:103B800000B585B003900291019201F001FA039B08
:103B900003221A7003980299019AFDF7C9FA039B50
:103BA0000833184601F004FA01F0FAF905B05DF89F
:103BB00004FB00BF00000000000000000000000047
:103BC00082B020230193019B83F3118802B07047D8
:103BD00082B000230193019B83F3118802B07047E8
:103BE00008B5FFF7EDFF08BD000000000000000071
:103BF00008B5FFF7EDFF08BD000000000000000061
:103C000008B5FFF7DDFF08BD000000000000000060
:103C100008B5FFF7DDFF08BD000000000000000050
:103C200008B5FFF7DDFF08BD000000000000000040
:103C300008B5FFF7DDFF08BD000000000000000030
:103C400008B5FFF7DDFF08BD000000000000000020
:103C500008B5FFF7DDFF08BD000000000000000010
:103C600008B5FFF7DDFF08BD000000000000000000
:103C700008B5FFF7DDFF08BD0000000000000000F0
:103C800000B583B00190019802F0C2F903461846CE
:103C900003B05DF804FB00BF00000000000000005E
:103CA00000B583B0019000910198009902F0C8F925
:103CB00003B05DF804FB00BF00000000000000003E
:103CC00084B00190019B5A1C01921B78ADF80E3014
:103CD000019B1B781B029AB2BDF80E3013439BB2B6
:103CE000ADF80E30BDF80E30184604B0704700BF76
:103CF00000B583B00190019B93F84620019B83F8A7
:103D00004E200198FEF7E4F9019B5B681B68002BCD
:103D100005D0019B5B681B68019801219847019BB6
:103D200003221A7003B05DF804FB00BF000000001E
:103D300070B584B00190019B93F8443003F07F028A
:103D4000019B93F845301B021343B3F5407F5AD0D3
:103D5000B3F5407F12D8022B00F0EE80022B05D87D
:103D6000002B28D0012B00F0DC80A6E1B3F5807F8A
:103D70002ED0B3F5817F00F036819EE1B3F5C06FA0
:103D800074D0B3F5C06F08D840F20232934200F00D
:103D90005F81B3F5A06F51D08FE1B3F5106F00F0E4
:103DA000988040F60242934200F0BB80B3F5006F6A
:103DB00000F0828081E1019B03F14C02019B9A6338
:103DC000019B0222DA63019B00221A64012375E140
:103DD000019B93F84630012B13D1019BB3F84C3073
:103DE00023F002039AB2019BA3F84C20019B00220E
:103DF0009A63019B0022DA63019B00221A6401236B
:103E00005CE100235AE1019B93F84630012B13D16A
:103E1000019BB3F84C3043F002039AB2019BA3F824
:103E20004C20019B00229A63019B0022DA63019BD4
:103E300000221A64012341E100233FE1019B93F832
:103E40004430002B07D1019B93F84530052B02D15C
:103E50000198FFF74DFF019B00229A63019B00220E
:103E6000DA63019B00221A64012327E1019B5B684E
:103E70005C68019B93F84760019B93F84650019B57
:103E800048331846FFF71CFF0346019831462A467F
:103E9000A0470390039B002B01D100230EE1039B5D
:103EA0005A68019B9A63039B1A68019BDA63019B22
:103EB00000221A64012301E1019B03F14F02019BDF
:103EC0009A63019B0122DA63019B00221A64012399
:103ED000F4E0019B93F84620019B83F84F20019B5F
:103EE00093F84F30002B03D1019B03221A7002E09C
:103EF000019B04221A70019B5B681B68002B05D094
:103F0000019B5B681B68019802219847019B002276
:103F10009A63019B0022DA63019B00221A64012349
:103F2000CCE0019B674A9A63019B0222DA63019B02
:103F300000221A640123C1E0019B93F84830DBB2F0
:103F40005BB2002B27DA019B93F8483003F00F0394
:103F5000DBB201981946FEF71BFA0346012B02D08B
:103F6000022B0BD015E0019B574A9A63019B02225A
:103F7000DA63019B00221A6401239FE0019B534AEC
:103F80009A63019B0222DA63019B00221A640123D7
:103F900094E0002392E0019B93F8483003F00F0374
:103FA000DBB201981946FEF7D3F90346012B02D084
:103FB000022B0BD015E0019B434A9A63019B02221E
:103FC000DA63019B00221A64012377E0019B3F4AD8
:103FD0009A63019B0222DA63019B00221A64012387
:103FE0006CE000236AE0019B93F84630002B01D07F
:103FF000002363E0019B93F8483003F00F03002B8C
:104000001BD0019B93F84830DBB25BB2002B0ADA7D
:10401000019B93F8483003F00F03DBB20198194677
:10402000FEF79EFB09E0019B93F8483003F00F0375
:10403000DBB201981946FEF773FB019B00229A63DD
:10404000019B0022DA63019B00221A64012335E000
:10405000019B93F84630002B01D000232EE0019BFA
:1040600093F8483003F00F03002B1BD0019B93F80B
:104070004830DBB25BB2002B0ADA019B93F8483080
:1040800003F00F03DBB201981946FEF729FB09E0A4
:10409000019B93F8483003F00F03DBB201981946F7
:1040A000FEF7FEFA019B00229A63019B0022DA636D
:1040B000019B00221A64012300E00023184604B08B
:1040C00070BD00BF806A0008A06A0008906A0008FE
:1040D00008B5FDF7A5FE08BD0000000000000000C7
:1040E00084B00190019B01221A70019B00225A604A
:1040F000002303930FE0019A039B06339B001344B4
:1041000000225A60019B039A0A32002143F82210D0
:10411000039B01330393039B022BECD9019B0022E9
:104120001A81019B00225A8104B0704700000000F0
:1041300000B585B001900091FFF782FD019B009AC8
:104140005A600023039309E0019A039B02339B000A
:10415000134400225A60039B01330393039B032BF8
:10416000F2D90198FDF78CFE019B02221A70FFF72D
:104170006FFD05B05DF804FB0000000000000000CA
:1041800000B585B003900B4601928DF80B309DF879
:104190000B30039A02339B001344019A5A60019B2F
:1041A0005B69002B06D0019B5B6918460021142235
:1041B00002F01EF8019B9B69002B06D0019B9B69B6
:1041C00018460021142202F013F89DF80B300398D2
:1041D0001946FDF795FF05B05DF804FB00000000EF
:1041E00000B587B00390019200930B468DF80B3019
:1041F000039B5A899DF80B30012101FA03F39BB20E
:1042000013439AB2039B5A819DF80B30039A0233F1
:104210009B0013445B689B690593059B019A9A6018
:10422000059B009A1A60059B00225A60059B00229C
:10423000DA609DF80B3003981946FEF7E1F807B0F5
:104240005DF804FB0000000000000000000000001A
:1042500000B587B00390019200930B468DF80B30A8
:10426000039B1A899DF80B30012101FA03F39BB2DD
:1042700013439AB2039B1A819DF80B30039A0233C1
:104280009B0013445B685B690593059B019A9A60E8
:10429000059B009A1A60059B00225A60059B00222C
:1042A000DA609DF80B3003981946FEF749F907B01C
:1042B0005DF804FB000000000000000000000000AA
:1042C00000B587B00390019200930B468DF80B3038
:1042D000FFF7B6FC039B1B78042B04D0FFF7B8FC58
:1042E0006FF0010317E09DF80B3003981946019A0F
:1042F000009BFFF7ADFF9DF80B30039A02339B0044
:1043000013445B685B690C331846FFF7B9FC0590F2
:10431000FFF79EFC059B184607B05DF804FB00BF45
:1043200000B585B00190019B02221A70019B00220A
:10433000A3F84C20019B002283F84E20019B002211
:1043400083F84F20019B00221A81019B00225A8191
:104350000023039341E0019A039B02339B00134423
:104360005B68002B2FD0FFF77BFC019A039B023385
:104370009B0013445B685B69002B0CD0019A039B84
:1043800002339B0013445B685B690C3318466FF083
:104390000101FFF785FC019A039B02339B00134444
:1043A0005B689B69002B0CD0019A039B02339B0036
:1043B00013445B689B690C3318466FF00101FFF7EB
:1043C0006FFCFFF755FC019A039B02339B001344DB
:1043D00000225A60039B01330393039B032BBAD93A
:1043E000019B002283F834200198FDF7D9FD019B41
:1043F0005B681B68002B05D0019B5B681B680198FC
:104400000021984705B05DF804FB00BF00000000E4
:1044100000B585B00190019B05221A70019B5B6875
:104420001B68002B05D0019B5B681B68019803216A
:104430009847002303933AE0019A039B02339B00C1
:1044400013445B68002B2FD0FFF70AFC019A039BF3
:1044500002339B0013445B685B69002B0CD0019A0C
:10446000039B02339B0013445B685B690C33184663
:104470006FF00101FFF714FC019A039B02339B00CC
:1044800013445B689B69002B0CD0019A039B023399
:104490009B0013445B689B690C3318466FF0010165
:1044A000FFF7FEFBFFF7E4FB039B01330393039B42
:1044B000032BC1D905B05DF804FB00BF000000006C
:1044C00000B583B00190019B04221A70019B5B68C8
:1044D0001B68002B05D0019B5B681B6801980421B9
:1044E000984703B05DF804FB0000000000000000E6
:1044F00000B585B001900B468DF80330019B00227A
:1045000083F83420019B44339DF803200198114621
:104510001A46FDF75DFF019B5B689B68002B0AD084
:10452000019B5B689B6801989847034683F00103F1
:10453000DBB2002B27D0019B93F8443003F06003DB
:10454000002B08D10198FFF7F3FB034683F001032A
:10455000DBB2002B17D001980021FEF7C1F80198BB
:104560000021FEF79DF8019B5B681B68002B05D0BE
:10457000019B5B681B68019805219847019B0622F7
:1045800083F834205CE0019B4A331846FFF798FB20
:1045900003460393019BDA6B039B9A4202D9019B6A
:1045A000039ADA63019B93F84430DBB25BB2002BD1
:1045B00023DA019BDB6B002B10D0019B012283F8D7
:1045C0003420FFF74DFB019B9A6B019BDB6B01983D
:1045D0000021FFF73DFEFFF74BFB31E0019B03227B
:1045E00083F83420FFF73CFB0198002100220023D0
:1045F000FFF7F6FDFFF73CFB22E0019BDB6B002B96
:1046000010D0019B042283F83420FFF729FB019B83
:104610009A6B019BDB6B01980021FFF7E1FDFFF72F
:1046200027FB0DE0019B052283F83420FFF718FBE0
:104630000198002100220023FFF70AFEFFF718FB74
:1046400005B05DF804FB00BF0000000000000000A2
:1046500000B585B001900B468DF80330019B93F8AF
:104660003430062B6AD801A252F823F00F47000815
:1046700089460008D74600080F4700080F47000882
:10468000F54600080F470008019B4A331846FFF71C
:1046900017FB03460393019BDA6B039B9A421AD2E2
:1046A000019BDB6B019AD268128AB3FBF2F102FB29
:1046B00001F29B1A002B0ED1FFF7D2FA01980021CC
:1046C00000220023FFF7C4FDFFF7D2FA019B02226C
:1046D00083F8342032E0019B032283F83420FFF773
:1046E000BFFA0198002100220023FFF779FDFFF7B0
:1046F000BFFA23E0019B1B6C002B03D0019B1B6CBA
:1047000001989847019B002283F8342016E0019815
:104710000021FDF7E5FF01980021FDF7C1FF019B96
:104720005B681B68002B05D0019B5B681B680198C8
:1047300005219847019B062283F8342005B05DF8D7
:1047400004FB00BF000000000000000000000000AB
:1047500000B583B001900B468DF80330019B93F8B0
:104760003430062B49D801A252F823F0CD47000877
:10477000CD470008CD470008A74700088947000833
:10478000CD470008CD470008019B052283F834205F
:10479000FFF766FA0198002100220023FFF758FD79
:1047A000FFF766FA29E0019BDB689B695B68002BD9
:1047B00023D1019B1B6C002B03D0019B1B6C019828
:1047C0009847019B002283F8342016E001980021CD
:1047D000FDF786FF01980021FDF762FF019B5B68F2
:1047E0001B68002B05D0019B5B681B6801980521A5
:1047F0009847019B062283F8342003B05DF804FB40
:1048000082B001900091124A009BDBB21B01D9B229
:10481000019B134403F540730A461A700C49019B2F
:104820005B09019A02F01F02012000FA02F26033D4
:1048300041F823200649019B5B09019A02F01F02FF
:10484000012000FA02F241F8232002B0704700BFB5
:1048500000E100E000000000000000000000000097
:104860000D4A0D4B1B6843F4807313600B4B1B6F99
:1048700003F44073B3F5007F06D0084B4FF4803249
:104880001A67064B00221A67034A034B5B6823F43E
:1048900000735360704700BF007000400038024052
:1048A00008B5174B1B69164B4FF0FF321A61144BBA
:1048B00000221A61124B5B69114B4FF0FF325A61B3
:1048C0000F4B00225A610E4A0D4B1B6A63F0805356
:1048D00013620B4B00221A62094B5B6A084B4FF0C4
:1048E000FF325A62064B00225A62054A044B1B6C87
:1048F00043F080531364FFF7B3FFFEF7D1F808BD10
:10490000003802400000000000000000000000002D
:104910003C4B4FF080521A643B4B4FF440421A60BC
:10492000384A384B1B6843F001031360354B1B6852
:1049300003F00203002BF9D0324A324B9B6823F07C
:10494000030393602F4A2F4B9B6893602D4B9B680A
:1049500003F00C03002BF9D12A4A2A4B1B6803F001
:10496000F9031360274B00229A60264A254B1B68E7
:1049700043F480331360234B1B6803F40033002B94
:10498000F9D0204A1F4B5B6F43F0010353671D4B67
:104990005B6F03F00203002BF9D01A4B1B4A5A60DD
:1049A000184A184B1B6843F080731360164B5B6802
:1049B00003F48043002BF9D0124B1B6803F0007303
:1049C000002BF9D00F4B124A9A60124B40F205723D
:1049D0001A600C4A0B4B9B6843F002039360094B2F
:1049E0009B6803F00C03082BF9D1064A054B5B6C5E
:1049F00043F480435364034A024B5B6E43F48043A9
:104A00005366704700380240007000400854400769
:104A100000948838003C02400000000000000000C4
:104A200000B583B00B4B1B6803F03D030193094AAB
:104A3000019B9360084B1B68002B06D0064B1B683C
:104A4000054A526810460199984700F0E1F803B012
:104A50005DF804FB006002408409002000000000B3
:104A600000B583B00C4B1B689B0903F03D03019319
:104A7000094A019B9B019360084B9B68002B06D061
:104A8000064B9B68054AD26810460199984700F08A
:104A9000BFF803B05DF804FB006002408409002009
:104AA00000B583B00C4B1B681B0C03F03D03019356
:104AB000094A019B1B049360084B1B69002B06D01D
:104AC000064B1B69054A526910460199984700F048
:104AD0009FF803B05DF804FB0060024084090020E9
:104AE00000B583B00C4B1B689B0D03F03D03019395
:104AF000094A019B9B059360084B9B69002B06D0DC
:104B0000064B9B69054AD26910460199984700F007
:104B10007FF803B05DF804FB0060024084090020C8
:104B200084B00190019B073323F0070301930C4BE2
:104B30001B681A460B4B1B68D31A1A46019B9A42F4
:104B400001D2002309E0074B1B680393054B1A6849
:104B5000019B1344034A1360039B184604B070473B
:104B60005C0900205809002000000000000000003F
:104B700008B5064B064A1A60044B00229A60034BA4
:104B80000022DA60034801F023FB08BD6009002021
:104B900061510008700900200000000000000000C2
:104BA00082B020230193019B83F3118802B07047E8
:104BB00082B000230193019B83F3118802B07047F8
:104BC00008B5FFF7EDFF08BD000000000000000081
:104BD00008B5FFF7EDFF08BD000000000000000071
:104BE00010B582B0EFF309831C4623460193019B65
:104BF00020330193019B0093009B83F30988FFF707
:104C0000E7FF02B010BD00BF000000000000000080
:104C100010B582B0FFF7D4FF134B5B6803F4006359
:104C2000002B1DD0EFF309831C4623460193019B03
:104C3000203B0193019B4FF08072DA61019B00934E
:104C4000009B83F3098800F0E3FF0346002B03D0A9
:104C5000019B064A9A6105E0019B054A9A6101E0C1
:104C6000FFF7B6FF02B010BD00ED00E0B102000892
:104C7000B402000800000000000000000000000076
:104C8000704700BF000000000000000000000000AE
:104C900008B5FFF7F5FFFFF703FE0848FEF730FC05
:104CA00000F08EF800F0FCF8FEF7F2FEFFF710FAC5
:104CB000FCF7EEFB00F024F808BD00BFB06B000865
:104CC00082B001904FF08042019B53634FF08043CC
:104CD00000221A614FF080430222DA6002B070476E
:104CE0004FF080430022DA60704700BF00000000F0
:104CF00082B001904FF08042019B536302B0704735
:104D000008B5FDF7DDFF08BD000000000000000051
:104D100000B583B001900198FFF7D2FF03B05DF8B2
:104D200004FB00BF000000000000000000000000C5
:104D300008B5FFF7D5FF08BD000000000000000027
:104D400000B583B001900198FFF7D2FF03B05DF882
:104D500004FB00BF00000000000000000000000095
:104D600082B020230193019B83F3118802B0704726
:104D700082B000230193019B83F3118802B0704736
:104D800008B5FFF7EDFF08BD0000000000000000BF
:104D900008B5FFF7EDFF08BD0000000000000000AF
:104DA00008B5FFF7EDFF08BD00000000000000009F
:104DB00008B5FFF7EDFF08BD00000000000000008F
:104DC00008B5FDF7B5FF08BD0000000000000000B9
:104DD00082B00190019B01221A70019B00225A604F
:104DE00002B070470000000000000000000000005A
:104DF00000B583B001900091FFF7D2FF019B009AAC
:104E00005A600198FDF79CFF019B02221A70FFF780
:104E1000CFFF03B05DF804FB0000000000000000BD
:104E200000B583B001900091FFF7BAFF0198009997
:104E3000FDF7AEFFFFF7BCFF03B05DF804FB00BF5A
:104E400082B020230193019B83F3118802B0704745
:104E500082B000230193019B83F3118802B0704755
:104E600008B5FFF7EDFF08BD0000000000000000DE
:104E700008B5FFF7EDFF08BD0000000000000000CE
:104E800008B5FFF7EDFF08BD0000000000000000BE
:104E900008B5FFF7EDFF08BD0000000000000000AE
:104EA00008B5FCF795F908BD0000000000000000FF
:104EB00082B00190019B01221A70019B00225A606E
:104EC000019B0022DA60019B00221A7402B0704735
:104ED00000B583B001900091FFF7D2FF019B009ACB
:104EE0005A60009B5A68019B9A600198FCF780F910
:104EF000019B0022DA60019B02221A70FFF7C8FFB3
:104F000003B05DF804FB00BF0000000000000000DB
:104F100000B585B003900B4601928DF80B30FFF77A
:104F2000AFFF039BDA689DF80B30012101FA03F310
:104F30001A43039BDA609DF80B3003981946019AD7
:104F4000FCF71EFAFFF7A4FF05B05DF804FB00BFF5
:104F500082B020230193019B83F3118802B0704734
:104F600082B000230193019B83F3118802B0704744
:104F700008B5FFF7EDFF08BD0000000000000000CD
:104F800008B5FFF7EDFF08BD0000000000000000BD
:104F900008B5FFF7EDFF08BD0000000000000000AD
:104FA00008B5FFF7EDFF08BD00000000000000009D
:104FB00000B583B00190019801F02AF80346184625
:104FC00003B05DF804FB00BF00000000000000001B
:104FD00000B583B00190019801F0FAF803B05DF8D4
:104FE00004FB00BF00000000000000000000000003
:104FF00082B020230193019B83F3118802B0704794
:1050000082B000230193019B83F3118802B07047A3
:1050100008B5FFF7EDFF08BD00000000000000002C
:1050200008B5FFF7EDFF08BD00000000000000001C
:1050300000B583B001900091019B5A6B009B1A430D
:10504000019B5A63019B1B7F0A2B06D1019B5A6B64
:10505000019B1B6A1340002B0CD1019B1B7F0B2B68
:105060000ED1019B5A6B019B1B6A1A40019B1B6A64
:105070009A4205D1019B00221A62019800F0C8FCF7
:1050800003B05DF804FB00BF00000000000000005A
:1050900000B585B00190134B9B690293FFF7B8FFF1
:1050A000029B5A6B019B13400393039B002B0AD175
:1050B000029B019A1A620A2000F0D2FC029B5A6BF2
:1050C000019B13400393029B5A6B039BDB431A40E3
:1050D000029B5A63FFF7A4FF039B184605B05DF8D7
:1050E00004FB00BF080800200000000000000000D2
:1050F00082B020230193019B83F3118802B0704793
:1051000082B000230193019B83F3118802B07047A2
:1051100008B5FFF7EDFF08BD00000000000000002B
:1051200008B5FFF7EDFF08BD00000000000000001B
:10513000064B073323F007031A46054B1A60054B4D
:1051400023F007031A46044B1A607047480F0020EB
:1051500058090020000002205C0900200000000027
:1051600000B585B00190FFF7D3FF0198FFF7D8FC99
:105170000390FFF7D5FF039B184605B05DF804FBCD
:10518000704700BF000000000000000000000000A9
:10519000704700BF00000000000000000000000099
:1051A000FEE700BF0000000000000000000000005B
:1051B00084B0164B0393039B1B680293039B5B68AD
:1051C000019309E0029B1A68019B1A60019B04335A
:1051D0000193029B04330293039B9A68019B9A42BA
:1051E000F0D805E0019B00221A60019B0433019373
:1051F000039BDA68019B9A42F4D8039B1033039314
:10520000039B034A9342D6D304B07047E069000879
:10521000606A0008000000000000000000000000BC
:10522000FEE700BF000000000000000000000000DA
:1052300084B00190019B03F0070303930A4BDB68E2
:105240000293029A4FF6FF0313400293039B1A0244
:10525000029B134343F0BF6343F400330293024ABB
:10526000029BD36004B0704700ED00E00000000036
:1052700082B0034600918DF807309DF90730002B6E
:105280000CDA0C499DF8073003F00F03043B009A39
:10529000D2B21201D2B20B441A7609E006499DF946
:1052A0000730009AD2B21201D2B20B4483F8002325
:1052B00002B0704700ED00E000E100E000000000F7
:1052C00008B50E4B00229A600320FFF7B1FF0C4A8D
:1052D0000B4BDB6843F08073D3600A4A094B1B68B1
:1052E00043F0010313606FF004000121FFF7C0FFDA
:1052F0006FF001000221FFF7BBFF08BD00ED00E0E9
:10530000F0ED00E0001000E00000000000000000F0
:1053100082B020230193019B83F3118802B0704770
:1053200082B000230193019B83F3118802B0704780
:1053300008B5FFF7EDFF08BD000000000000000009
:1053400008B5FFF7EDFF08BD0000000000000000F9
:1053500072B670470000000000000000000000006E
:1053600082B000230193019B83F3118862B602B0DF
:10537000704700BF000000000000000000000000B7
:10538000704700BF000000000000000000000000A7
:10539000014B5B6818467047001000E000000000F9
:1053A0004FF080435B6A1846704700BF0000000062
:1053B00008B5FFF7BDFC08BD0000000000000000BC
:1053C00000B583B001900198FFF7BAFC03B05DF817
:1053D00004FB00BF0000000000000000000000000F
:1053E00008B5FFF7DDFF0346184608BD00000000C2
:1053F00008B5FFF7B5FF08BD000000000000000081
:1054000008B5FFF795FF08BD000000000000000090
:1054100008B5FFF795FF08BD000000000000000080
:1054200008B5FFF7DDFF0346184608BD0000000081
:1054300000B585B02A4BDB690393FFF7F1FF0290BB
:105440002AE0274B9A6A039B9B681344244A936281
:10545000039B1B68234A5A60039B1B68204AD36145
:10546000039BDB680093039B0022DA601C4BDB6923
:105470001C4A934201D1FFF79BFFFFF7C9FF039B33
:105480001A69009B10469847FFF7BAFF144BDB6977
:105490000393FFF7C5FF0290039B9A68104B9B6A2A
:1054A0000299CB1A9A42CCD90D4BDB690D4A934233
:1054B00012D00B4B9A6A039B9B681A44029BD31A27
:1054C0000193019B012B01D802230193029A019BB6
:1054D00013441846FFF774FF05B05DF804FB00BFE6
:1054E0000808002024080020000000000000000040
:1054F00082B00190024B9B69019A9A6102B0704799
:10550000080800200000000000000000000000006B
:1055100082B001900091019B009A9A6102B070479D
:1055200000B583B00190FFF72BFFFCE700000000FF
:1055300000B585B0FFF7C4FE00F05AFA00F0C0F8DD
:1055400000F0D6FDFFF7F4FDFFF712FB0F484021F6
:1055500000F03EFC02460E4B9A610D4B9B69012206
:105560001A77FFF745FF0B48FFF7C2FF00230093B0
:105570000948D8210122094B00F0AAFC03900398A6
:105580000749FFF7C5FF05B05DF804FB38080020A8
:1055900008080020606A00088008002021550008E3
:1055A000F06400080000000000000000000000009F
:1055B00000B583B00190FFF7CBFE024A019BD36296
:1055C000FEE700BF08080020000000000000000007
:1055D00008B5FFF72DFF08BD000000000000000027
:1055E00084B0039002910192039A029BD21A01990E
:1055F000029BCB1A9A4234BF01230023DBB2184628
:1056000004B070470000000000000000000000002F
:1056100000B585B00190FFF7BBFE0390039A019B94
:1056200013440293FFF7B4FE034618460399029A07
:10563000FFF7D6FF0346002BF4D105B05DF804FB5D
:105640004FF080435B6A1846704700BF00000000BF
:1056500000B583B001900198FFF75AFB03B05DF8E5
:1056600004FB00BF0000000000000000000000007C
:1056700008B5FFF75DFB08BD00000000000000005A
:1056800000B583B001900198FFF75AFB03B05DF8B5
:1056900004FB00BF0000000000000000000000004C
:1056A00008B5FFF7CDFF0346184608BD000000000F
:1056B00008B5FFF7F5FF0346184608BD00000000D7
:1056C000064B074ADA61054B054A1A62034B4FF055
:1056D000FF325A62014B00229A627047080800208C
:1056E000240800200000000000000000000000006E
:1056F00000B589B00390029101920093039B009A38
:105700001A61039B019ADA60FFF7D2FF0590029BB2
:10571000012B01D802230293314BDB69314A9342BA
:1057200019D12F4A059B93622D4A039BD3612C4AC2
:10573000039B1362039B2B4A1A60039B294A5A60FE
:10574000039B029A9A60264B9A6A029B134418465E
:10575000FFF77EFF40E0059A029B1A44204B9B6AAC
:10576000D31A06931E4BDB699A68069B9A4206D9A8
:105770001B4B9A6A069B13441846FFF781FF184B90
:10578000DB69079307E0079B9B68069AD31A069389
:10579000079B1B680793079B9A68069B9A42F2D364
:1057A000039B079A1A60039B1B685A68039B5A6005
:1057B000039B5B68039A1A60079B039A5A60039BDA
:1057C000069A9A60079B9A68069BD21A079B9A6072
:1057D000034B4FF0FF325A6209B05DF804FB00BF83
:1057E000080800202408002000000000000000003D
:1057F00000B585B00190304BDA69019B9A421BD00D
:10580000019B5B68019A12681A60019B1B68019AF0
:1058100052685A60019B0022DA60019B1B68274A8C
:10582000934246D0019B1B68019A12689168019AC5
:1058300092680A449A603CE0019B1B681E4AD3614F
:105840001D4BDB691D4A5A60019B0022DA601A4B2E
:10585000DB691A4A934202D1FFF70AFF29E0164B8F
:10586000DB69154AD2699168019A92680A449A6084
:10587000FFF71EFF0246104B9B6AD31A02930E4B92
:10588000DB699A68029B9A4213D90B4BDB699A68D1
:10589000029BD31A0393039B012B01D8022303938A
:1058A000054B9A6A029B1A44039B13441846FFF760
:1058B000E7FE05B05DF804FB08080020240800207E
:1058C00082B020230193019B83F3118802B07047BB
:1058D00082B000230193019B83F3118802B07047CB
:1058E00008B5FFF7EDFF08BD000000000000000054
:1058F00008B5FFF7EDFF08BD000000000000000044
:1059000082B00190019B019A1A60019B019A5A6032
:1059100002B070470000000000000000000000001E
:1059200084B00190019B1B680393039B1A68019B41
:105930001A60019B1B68019A5A60039B184604B0C9
:10594000704700BF000000000000000000000000E1
:1059500082B00190019B5B68019A12681A60019BFA
:105960001B68019A52685A60019B184602B0704742
:10597000064B1B689A68054B9B699B689A428CBFD3
:1059800001230023DBB21846704700BF080800203F
:1059900008B5FFF7A5FF08BD0000000000000000EB
:1059A00008B5FFF7A5FF08BD0000000000000000DB
:1059B00082B00190019BDB68002B14BF0123002300
:1059C000DBB2184602B07047000000000000000083
:1059D00082B00190019B9B685A1C019B9A6002B0A7
:1059E000704700BF00000000000000000000000041
:1059F00008B50648FFF784FF044B00229A60034B6A
:105A0000024A1A61014B014A5A6108BD0808002088
:105A100084B00190019B00221A770E4B0393039BE5
:105A20001B680393039B9A68019B9B689A42F6D27A
:105A3000019B039A1A60039B5A68019B5A60019B61
:105A40005B68019A1A60039B019A5A60019B184691
:105A500004B07047080800200000000000000000AB
:105A600000B585B003468DF807300D4B9B69039355
:105A7000039B9DF807201A770948FFF751FF02465C
:105A8000074B9A61064B9B6901221A77044B9B696D
:105A900018460399FAF7FCFB05B05DF804FB00BF5C
:105AA00008080020000000000000000000000000C6
:105AB00000B585B00190019B0393FFF769FF039B3D
:105AC0001B7F072B22D801A252F823F0ED5A0008C1
:105AD0000D5B00080D5B0008F35A0008075B000827
